{
  "_format": "hh-sol-artifact-1",
  "contractName": "MultispecialistHospital",
  "sourceName": "contracts/MultispecialistHospital.sol",
  "abi": [
    {
      "inputs": [
        {
          "internalType": "uint256",
          "name": "_totalBeds",
          "type": "uint256"
        }
      ],
      "stateMutability": "nonpayable",
      "type": "constructor"
    },
    {
      "anonymous": false,
      "inputs": [
        {
          "indexed": false,
          "internalType": "address",
          "name": "patient",
          "type": "address"
        },
        {
          "indexed": false,
          "internalType": "uint256",
          "name": "amount",
          "type": "uint256"
        }
      ],
      "name": "billPaid",
      "type": "event"
    },
    {
      "anonymous": false,
      "inputs": [
        {
          "indexed": false,
          "internalType": "address",
          "name": "patient",
          "type": "address"
        },
        {
          "indexed": false,
          "internalType": "address",
          "name": "doctor",
          "type": "address"
        },
        {
          "indexed": false,
          "internalType": "uint256",
          "name": "amount",
          "type": "uint256"
        }
      ],
      "name": "fundsDeposited",
      "type": "event"
    },
    {
      "anonymous": false,
      "inputs": [
        {
          "indexed": false,
          "internalType": "address",
          "name": "doctor",
          "type": "address"
        },
        {
          "indexed": false,
          "internalType": "string",
          "name": "name",
          "type": "string"
        },
        {
          "indexed": false,
          "internalType": "string",
          "name": "speciality",
          "type": "string"
        }
      ],
      "name": "newDoctorRegistered",
      "type": "event"
    },
    {
      "anonymous": false,
      "inputs": [
        {
          "indexed": false,
          "internalType": "address",
          "name": "patient",
          "type": "address"
        },
        {
          "indexed": false,
          "internalType": "string",
          "name": "name",
          "type": "string"
        }
      ],
      "name": "newPatientRegistered",
      "type": "event"
    },
    {
      "anonymous": false,
      "inputs": [
        {
          "indexed": false,
          "internalType": "address",
          "name": "patient",
          "type": "address"
        },
        {
          "indexed": false,
          "internalType": "address",
          "name": "doctor",
          "type": "address"
        },
        {
          "indexed": false,
          "internalType": "uint256",
          "name": "bedNumber",
          "type": "uint256"
        }
      ],
      "name": "patientAdmitted",
      "type": "event"
    },
    {
      "anonymous": false,
      "inputs": [
        {
          "indexed": false,
          "internalType": "address",
          "name": "patient",
          "type": "address"
        }
      ],
      "name": "patientDischarged",
      "type": "event"
    },
    {
      "inputs": [
        {
          "internalType": "address",
          "name": "patient",
          "type": "address"
        },
        {
          "internalType": "uint256",
          "name": "bed",
          "type": "uint256"
        }
      ],
      "name": "admitPatient",
      "outputs": [],
      "stateMutability": "nonpayable",
      "type": "function"
    },
    {
      "inputs": [],
      "name": "availableBeds",
      "outputs": [
        {
          "internalType": "uint256",
          "name": "",
          "type": "uint256"
        }
      ],
      "stateMutability": "view",
      "type": "function"
    },
    {
      "inputs": [
        {
          "internalType": "uint256",
          "name": "",
          "type": "uint256"
        }
      ],
      "name": "beds",
      "outputs": [
        {
          "internalType": "string",
          "name": "patientName",
          "type": "string"
        },
        {
          "internalType": "bool",
          "name": "isAvailable",
          "type": "bool"
        }
      ],
      "stateMutability": "view",
      "type": "function"
    },
    {
      "inputs": [
        {
          "internalType": "address",
          "name": "_patient",
          "type": "address"
        }
      ],
      "name": "dischargePatient",
      "outputs": [],
      "stateMutability": "payable",
      "type": "function"
    },
    {
      "inputs": [
        {
          "internalType": "address",
          "name": "",
          "type": "address"
        }
      ],
      "name": "doctors",
      "outputs": [
        {
          "internalType": "string",
          "name": "name",
          "type": "string"
        },
        {
          "internalType": "address",
          "name": "doctor",
          "type": "address"
        },
        {
          "internalType": "string",
          "name": "speciality",
          "type": "string"
        },
        {
          "internalType": "uint256",
          "name": "billIssued",
          "type": "uint256"
        }
      ],
      "stateMutability": "view",
      "type": "function"
    },
    {
      "inputs": [
        {
          "internalType": "address",
          "name": "_patient",
          "type": "address"
        },
        {
          "internalType": "uint256",
          "name": "_amount",
          "type": "uint256"
        }
      ],
      "name": "issueBill",
      "outputs": [],
      "stateMutability": "nonpayable",
      "type": "function"
    },
    {
      "inputs": [],
      "name": "owner",
      "outputs": [
        {
          "internalType": "address",
          "name": "",
          "type": "address"
        }
      ],
      "stateMutability": "view",
      "type": "function"
    },
    {
      "inputs": [
        {
          "internalType": "address",
          "name": "",
          "type": "address"
        }
      ],
      "name": "patients",
      "outputs": [
        {
          "internalType": "address",
          "name": "patient",
          "type": "address"
        },
        {
          "internalType": "string",
          "name": "name",
          "type": "string"
        },
        {
          "internalType": "uint256",
          "name": "admissionDate",
          "type": "uint256"
        },
        {
          "internalType": "uint256",
          "name": "dischargeDate",
          "type": "uint256"
        },
        {
          "internalType": "bool",
          "name": "isAdmitted",
          "type": "bool"
        },
        {
          "internalType": "uint256",
          "name": "bedNumber",
          "type": "uint256"
        }
      ],
      "stateMutability": "view",
      "type": "function"
    },
    {
      "inputs": [],
      "name": "payBills",
      "outputs": [],
      "stateMutability": "payable",
      "type": "function"
    },
    {
      "inputs": [
        {
          "internalType": "address",
          "name": "_doctor",
          "type": "address"
        },
        {
          "internalType": "string",
          "name": "name",
          "type": "string"
        },
        {
          "internalType": "string",
          "name": "speciality",
          "type": "string"
        }
      ],
      "name": "registerDoctor",
      "outputs": [],
      "stateMutability": "nonpayable",
      "type": "function"
    },
    {
      "inputs": [
        {
          "internalType": "string",
          "name": "name",
          "type": "string"
        },
        {
          "internalType": "address",
          "name": "_patient",
          "type": "address"
        }
      ],
      "name": "registerPatient",
      "outputs": [],
      "stateMutability": "nonpayable",
      "type": "function"
    },
    {
      "inputs": [],
      "name": "totalBeds",
      "outputs": [
        {
          "internalType": "uint256",
          "name": "",
          "type": "uint256"
        }
      ],
      "stateMutability": "view",
      "type": "function"
    }
  ],
  "bytecode": "0x60806040523480156200001157600080fd5b5060405162002c5638038062002c56833981810160405281019062000037919062000164565b336000806101000a81548173ffffffffffffffffffffffffffffffffffffffff021916908373ffffffffffffffffffffffffffffffffffffffff160217905550806001819055508060028190555060005b818110156200011c57604051806040016040528060405180602001604052806000815250815260200160011515815250600560008381526020019081526020016000206000820151816000019081620000e2919062000406565b5060208201518160010160006101000a81548160ff021916908315150217905550905050808062000113906200051c565b91505062000088565b505062000569565b600080fd5b6000819050919050565b6200013e8162000129565b81146200014a57600080fd5b50565b6000815190506200015e8162000133565b92915050565b6000602082840312156200017d576200017c62000124565b5b60006200018d848285016200014d565b91505092915050565b600081519050919050565b7f4e487b7100000000000000000000000000000000000000000000000000000000600052604160045260246000fd5b7f4e487b7100000000000000000000000000000000000000000000000000000000600052602260045260246000fd5b600060028204905060018216806200021857607f821691505b6020821081036200022e576200022d620001d0565b5b50919050565b60008190508160005260206000209050919050565b60006020601f8301049050919050565b600082821b905092915050565b600060088302620002987fffffffffffffffffffffffffffffffffffffffffffffffffffffffffffffffff8262000259565b620002a4868362000259565b95508019841693508086168417925050509392505050565b6000819050919050565b6000620002e7620002e1620002db8462000129565b620002bc565b62000129565b9050919050565b6000819050919050565b6200030383620002c6565b6200031b6200031282620002ee565b84845462000266565b825550505050565b600090565b6200033262000323565b6200033f818484620002f8565b505050565b5b8181101562000367576200035b60008262000328565b60018101905062000345565b5050565b601f821115620003b657620003808162000234565b6200038b8462000249565b810160208510156200039b578190505b620003b3620003aa8562000249565b83018262000344565b50505b505050565b600082821c905092915050565b6000620003db60001984600802620003bb565b1980831691505092915050565b6000620003f68383620003c8565b9150826002028217905092915050565b620004118262000196565b67ffffffffffffffff8111156200042d576200042c620001a1565b5b620004398254620001ff565b620004468282856200036b565b600060209050601f8311600181146200047e576000841562000469578287015190505b620004758582620003e8565b865550620004e5565b601f1984166200048e8662000234565b60005b82811015620004b85784890151825560018201915060208501945060208101905062000491565b86831015620004d85784890151620004d4601f891682620003c8565b8355505b6001600288020188555050505b505050505050565b7f4e487b7100000000000000000000000000000000000000000000000000000000600052601160045260246000fd5b6000620005298262000129565b91507fffffffffffffffffffffffffffffffffffffffffffffffffffffffffffffffff82036200055e576200055d620004ed565b5b600182019050919050565b6126dd80620005796000396000f3fe6080604052600436106100a75760003560e01c80634612361711610064578063461236171461019e57806353d08ef4146101ba5780638da5cb5b146101e3578063a1fe818f1461020e578063a9583c2214610239578063b9858d1c14610279576100a7565b80630869cfbc146100ac5780631cdb9a30146100ee5780632512a365146100f85780632644efda14610121578063281c710f1461014a5780632ae24d8314610175575b600080fd5b3480156100b857600080fd5b506100d360048036038101906100ce91906115ee565b6102b7565b6040516100e5969594939291906116ee565b60405180910390f35b6100f66103a8565b005b34801561010457600080fd5b5061011f600480360381019061011a919061188b565b610503565b005b34801561012d57600080fd5b5061014860048036038101906101439190611913565b6106f6565b005b34801561015657600080fd5b5061015f6108a9565b60405161016c9190611953565b60405180910390f35b34801561018157600080fd5b5061019c60048036038101906101979190611913565b6108af565b005b6101b860048036038101906101b391906115ee565b610ca2565b005b3480156101c657600080fd5b506101e160048036038101906101dc919061196e565b6110e3565b005b3480156101ef57600080fd5b506101f8611339565b60405161020591906119f9565b60405180910390f35b34801561021a57600080fd5b5061022361135d565b6040516102309190611953565b60405180910390f35b34801561024557600080fd5b50610260600480360381019061025b91906115ee565b611363565b6040516102709493929190611a14565b60405180910390f35b34801561028557600080fd5b506102a0600480360381019061029b9190611a67565b6114c3565b6040516102ae929190611a94565b60405180910390f35b60036020528060005260406000206000915090508060000160009054906101000a900473ffffffffffffffffffffffffffffffffffffffff169080600101805461030090611af3565b80601f016020809104026020016040519081016040528092919081815260200182805461032c90611af3565b80156103795780601f1061034e57610100808354040283529160200191610379565b820191906000526020600020905b81548152906001019060200180831161035c57829003601f168201915b5050505050908060020154908060030154908060040160009054906101000a900460ff16908060050154905086565b6000600360003373ffffffffffffffffffffffffffffffffffffffff1673ffffffffffffffffffffffffffffffffffffffff16815260200190815260200160002060010180546103f790611af3565b905011610439576040517f08c379a000000000000000000000000000000000000000000000000000000000815260040161043090611b96565b60405180910390fd5b6000341161047c576040517f08c379a000000000000000000000000000000000000000000000000000000000815260040161047390611c02565b60405180910390fd5b600460003373ffffffffffffffffffffffffffffffffffffffff1673ffffffffffffffffffffffffffffffffffffffff16815260200190815260200160002060030154341015610501576040517f08c379a00000000000000000000000000000000000000000000000000000000081526004016104f890611c94565b60405180910390fd5b565b6000600360003373ffffffffffffffffffffffffffffffffffffffff1673ffffffffffffffffffffffffffffffffffffffff168152602001908152602001600020600101805461055290611af3565b905014610594576040517f08c379a000000000000000000000000000000000000000000000000000000000815260040161058b90611d26565b60405180910390fd5b6040518060c001604052803373ffffffffffffffffffffffffffffffffffffffff168152602001838152602001428152602001600081526020016000151581526020016000815250600360008373ffffffffffffffffffffffffffffffffffffffff1673ffffffffffffffffffffffffffffffffffffffff16815260200190815260200160002060008201518160000160006101000a81548173ffffffffffffffffffffffffffffffffffffffff021916908373ffffffffffffffffffffffffffffffffffffffff16021790555060208201518160010190816106779190611ef2565b50604082015181600201556060820151816003015560808201518160040160006101000a81548160ff02191690831515021790555060a082015181600501559050507f24690f43d08cc4f3bcf8fab1be5d1fc0ce4a8a7d4354639189f4868298d60c5a33836040516106ea929190611fc4565b60405180910390a15050565b6000600460003373ffffffffffffffffffffffffffffffffffffffff1673ffffffffffffffffffffffffffffffffffffffff168152602001908152602001600020600001805461074590611af3565b905011610787576040517f08c379a000000000000000000000000000000000000000000000000000000000815260040161077e90612066565b60405180910390fd5b6000600360008473ffffffffffffffffffffffffffffffffffffffff1673ffffffffffffffffffffffffffffffffffffffff16815260200190815260200160002060010180546107d690611af3565b905011610818576040517f08c379a000000000000000000000000000000000000000000000000000000000815260040161080f906120d2565b60405180910390fd5b600081600460003373ffffffffffffffffffffffffffffffffffffffff1673ffffffffffffffffffffffffffffffffffffffff16815260200190815260200160002060030181905590508082146108a4576040517f08c379a000000000000000000000000000000000000000000000000000000000815260040161089b90611c02565b60405180910390fd5b505050565b60025481565b6000600460003373ffffffffffffffffffffffffffffffffffffffff1673ffffffffffffffffffffffffffffffffffffffff16815260200190815260200160002060000180546108fe90611af3565b905011610940576040517f08c379a000000000000000000000000000000000000000000000000000000000815260040161093790612066565b60405180910390fd5b6000600360008473ffffffffffffffffffffffffffffffffffffffff1673ffffffffffffffffffffffffffffffffffffffff168152602001908152602001600020600101805461098f90611af3565b9050116109d1576040517f08c379a00000000000000000000000000000000000000000000000000000000081526004016109c890612164565b60405180910390fd5b6000811180156109e357506001548111155b610a22576040517f08c379a0000000000000000000000000000000000000000000000000000000008152600401610a19906121d0565b60405180910390fd5b6005600082815260200190815260200160002060010160009054906101000a900460ff16610a85576040517f08c379a0000000000000000000000000000000000000000000000000000000008152600401610a7c9061223c565b60405180910390fd5b600360008373ffffffffffffffffffffffffffffffffffffffff1673ffffffffffffffffffffffffffffffffffffffff16815260200190815260200160002060040160009054906101000a900460ff1615610b15576040517f08c379a0000000000000000000000000000000000000000000000000000000008152600401610b0c906122a8565b60405180910390fd5b6001600360008473ffffffffffffffffffffffffffffffffffffffff1673ffffffffffffffffffffffffffffffffffffffff16815260200190815260200160002060040160006101000a81548160ff02191690831515021790555080600360008473ffffffffffffffffffffffffffffffffffffffff1673ffffffffffffffffffffffffffffffffffffffff16815260200190815260200160002060050181905550600360008373ffffffffffffffffffffffffffffffffffffffff1673ffffffffffffffffffffffffffffffffffffffff168152602001908152602001600020600101600560008381526020019081526020016000206000019081610c1b91906122f3565b5060006005600083815260200190815260200160002060010160006101000a81548160ff0219169083151502179055507f79170b624a2473353b3612df1168a7e5b3cc2a37bad5fd00a2dde25e52899197823383604051610c7e939291906123db565b60405180910390a160026000815480929190610c9990612441565b91905055505050565b6000600460003373ffffffffffffffffffffffffffffffffffffffff1673ffffffffffffffffffffffffffffffffffffffff1681526020019081526020016000206000018054610cf190611af3565b905011610d33576040517f08c379a0000000000000000000000000000000000000000000000000000000008152600401610d2a90612066565b60405180910390fd5b6000339050600360008373ffffffffffffffffffffffffffffffffffffffff1673ffffffffffffffffffffffffffffffffffffffff16815260200190815260200160002060040160009054906101000a900460ff16610dc7576040517f08c379a0000000000000000000000000000000000000000000000000000000008152600401610dbe906124b6565b60405180910390fd5b6000600460008373ffffffffffffffffffffffffffffffffffffffff1673ffffffffffffffffffffffffffffffffffffffff16815260200190815260200160002060030154905060008111610e51576040517f08c379a0000000000000000000000000000000000000000000000000000000008152600401610e4890612522565b60405180910390fd5b8173ffffffffffffffffffffffffffffffffffffffff166108fc829081150290604051600060405180830381858888f19350505050158015610e97573d6000803e3d6000fd5b506000600460008473ffffffffffffffffffffffffffffffffffffffff1673ffffffffffffffffffffffffffffffffffffffff168152602001908152602001600020600301819055506040518060400160405280600181526020017f200000000000000000000000000000000000000000000000000000000000000081525060056000600360008773ffffffffffffffffffffffffffffffffffffffff1673ffffffffffffffffffffffffffffffffffffffff1681526020019081526020016000206005015481526020019081526020016000206000019081610f7a9190611ef2565b50600160056000600360008773ffffffffffffffffffffffffffffffffffffffff1673ffffffffffffffffffffffffffffffffffffffff16815260200190815260200160002060050154815260200190815260200160002060010160006101000a81548160ff0219169083151502179055506000600360008573ffffffffffffffffffffffffffffffffffffffff1673ffffffffffffffffffffffffffffffffffffffff16815260200190815260200160002060040160006101000a81548160ff0219169083151502179055506000600360008573ffffffffffffffffffffffffffffffffffffffff1673ffffffffffffffffffffffffffffffffffffffff168152602001908152602001600020600501819055507f938340aeb11e53b2ebd436cc5e89485ddc0e97e811d49abc85937d87ced154a4836040516110be91906119f9565b60405180910390a1600260008154809291906110d990612542565b9190505550505050565b60008054906101000a900473ffffffffffffffffffffffffffffffffffffffff1673ffffffffffffffffffffffffffffffffffffffff163373ffffffffffffffffffffffffffffffffffffffff1614611171576040517f08c379a0000000000000000000000000000000000000000000000000000000008152600401611168906125d6565b60405180910390fd5b6000600460008573ffffffffffffffffffffffffffffffffffffffff1673ffffffffffffffffffffffffffffffffffffffff16815260200190815260200160002060000180546111c090611af3565b905014611202576040517f08c379a00000000000000000000000000000000000000000000000000000000081526004016111f990612642565b60405180910390fd5b60405180608001604052808381526020013373ffffffffffffffffffffffffffffffffffffffff1681526020018281526020016000815250600460008573ffffffffffffffffffffffffffffffffffffffff1673ffffffffffffffffffffffffffffffffffffffff168152602001908152602001600020600082015181600001908161128e9190611ef2565b5060208201518160010160006101000a81548173ffffffffffffffffffffffffffffffffffffffff021916908373ffffffffffffffffffffffffffffffffffffffff16021790555060408201518160020190816112eb9190611ef2565b50606082015181600301559050507f2af779026a9ea07624e546688ccec7cb58022cee37ecee40e5b551843cf02cc133838360405161132c93929190612662565b60405180910390a1505050565b60008054906101000a900473ffffffffffffffffffffffffffffffffffffffff1681565b60015481565b600460205280600052604060002060009150905080600001805461138690611af3565b80601f01602080910402602001604051908101604052809291908181526020018280546113b290611af3565b80156113ff5780601f106113d4576101008083540402835291602001916113ff565b820191906000526020600020905b8154815290600101906020018083116113e257829003601f168201915b5050505050908060010160009054906101000a900473ffffffffffffffffffffffffffffffffffffffff169080600201805461143a90611af3565b80601f016020809104026020016040519081016040528092919081815260200182805461146690611af3565b80156114b35780601f10611488576101008083540402835291602001916114b3565b820191906000526020600020905b81548152906001019060200180831161149657829003601f168201915b5050505050908060030154905084565b60056020528060005260406000206000915090508060000180546114e690611af3565b80601f016020809104026020016040519081016040528092919081815260200182805461151290611af3565b801561155f5780601f106115345761010080835404028352916020019161155f565b820191906000526020600020905b81548152906001019060200180831161154257829003601f168201915b5050505050908060010160009054906101000a900460ff16905082565b6000604051905090565b600080fd5b600080fd5b600073ffffffffffffffffffffffffffffffffffffffff82169050919050565b60006115bb82611590565b9050919050565b6115cb816115b0565b81146115d657600080fd5b50565b6000813590506115e8816115c2565b92915050565b60006020828403121561160457611603611586565b5b6000611612848285016115d9565b91505092915050565b611624816115b0565b82525050565b600081519050919050565b600082825260208201905092915050565b60005b83811015611664578082015181840152602081019050611649565b60008484015250505050565b6000601f19601f8301169050919050565b600061168c8261162a565b6116968185611635565b93506116a6818560208601611646565b6116af81611670565b840191505092915050565b6000819050919050565b6116cd816116ba565b82525050565b60008115159050919050565b6116e8816116d3565b82525050565b600060c082019050611703600083018961161b565b81810360208301526117158188611681565b905061172460408301876116c4565b61173160608301866116c4565b61173e60808301856116df565b61174b60a08301846116c4565b979650505050505050565b600080fd5b600080fd5b7f4e487b7100000000000000000000000000000000000000000000000000000000600052604160045260246000fd5b61179882611670565b810181811067ffffffffffffffff821117156117b7576117b6611760565b5b80604052505050565b60006117ca61157c565b90506117d6828261178f565b919050565b600067ffffffffffffffff8211156117f6576117f5611760565b5b6117ff82611670565b9050602081019050919050565b82818337600083830152505050565b600061182e611829846117db565b6117c0565b90508281526020810184848401111561184a5761184961175b565b5b61185584828561180c565b509392505050565b600082601f83011261187257611871611756565b5b813561188284826020860161181b565b91505092915050565b600080604083850312156118a2576118a1611586565b5b600083013567ffffffffffffffff8111156118c0576118bf61158b565b5b6118cc8582860161185d565b92505060206118dd858286016115d9565b9150509250929050565b6118f0816116ba565b81146118fb57600080fd5b50565b60008135905061190d816118e7565b92915050565b6000806040838503121561192a57611929611586565b5b6000611938858286016115d9565b9250506020611949858286016118fe565b9150509250929050565b600060208201905061196860008301846116c4565b92915050565b60008060006060848603121561198757611986611586565b5b6000611995868287016115d9565b935050602084013567ffffffffffffffff8111156119b6576119b561158b565b5b6119c28682870161185d565b925050604084013567ffffffffffffffff8111156119e3576119e261158b565b5b6119ef8682870161185d565b9150509250925092565b6000602082019050611a0e600083018461161b565b92915050565b60006080820190508181036000830152611a2e8187611681565b9050611a3d602083018661161b565b8181036040830152611a4f8185611681565b9050611a5e60608301846116c4565b95945050505050565b600060208284031215611a7d57611a7c611586565b5b6000611a8b848285016118fe565b91505092915050565b60006040820190508181036000830152611aae8185611681565b9050611abd60208301846116df565b9392505050565b7f4e487b7100000000000000000000000000000000000000000000000000000000600052602260045260246000fd5b60006002820490506001821680611b0b57607f821691505b602082108103611b1e57611b1d611ac4565b5b50919050565b7f4f6e6c7920726567697374657265642070617469656e742063616e2063616c6c60008201527f20746869732066756e6374696f6e000000000000000000000000000000000000602082015250565b6000611b80602e83611635565b9150611b8b82611b24565b604082019050919050565b60006020820190508181036000830152611baf81611b73565b9050919050565b7f696e76616c696420616d6f756e74000000000000000000000000000000000000600082015250565b6000611bec600e83611635565b9150611bf782611bb6565b602082019050919050565b60006020820190508181036000830152611c1b81611bdf565b9050919050565b7f62696c6c20616d6f756e742073686f756c64206265206d61746368207769746860008201527f20697373756542696c6c00000000000000000000000000000000000000000000602082015250565b6000611c7e602a83611635565b9150611c8982611c22565b604082019050919050565b60006020820190508181036000830152611cad81611c71565b9050919050565b7f596f752061726520616c7265616479206120726567697374657265642070617460008201527f69656e7400000000000000000000000000000000000000000000000000000000602082015250565b6000611d10602483611635565b9150611d1b82611cb4565b604082019050919050565b60006020820190508181036000830152611d3f81611d03565b9050919050565b60008190508160005260206000209050919050565b60006020601f8301049050919050565b600082821b905092915050565b600060088302611da87fffffffffffffffffffffffffffffffffffffffffffffffffffffffffffffffff82611d6b565b611db28683611d6b565b95508019841693508086168417925050509392505050565b6000819050919050565b6000611def611dea611de5846116ba565b611dca565b6116ba565b9050919050565b6000819050919050565b611e0983611dd4565b611e1d611e1582611df6565b848454611d78565b825550505050565b600090565b611e32611e25565b611e3d818484611e00565b505050565b5b81811015611e6157611e56600082611e2a565b600181019050611e43565b5050565b601f821115611ea657611e7781611d46565b611e8084611d5b565b81016020851015611e8f578190505b611ea3611e9b85611d5b565b830182611e42565b50505b505050565b600082821c905092915050565b6000611ec960001984600802611eab565b1980831691505092915050565b6000611ee28383611eb8565b9150826002028217905092915050565b611efb8261162a565b67ffffffffffffffff811115611f1457611f13611760565b5b611f1e8254611af3565b611f29828285611e65565b600060209050601f831160018114611f5c5760008415611f4a578287015190505b611f548582611ed6565b865550611fbc565b601f198416611f6a86611d46565b60005b82811015611f9257848901518255600182019150602085019450602081019050611f6d565b86831015611faf5784890151611fab601f891682611eb8565b8355505b6001600288020188555050505b505050505050565b6000604082019050611fd9600083018561161b565b8181036020830152611feb8184611681565b90509392505050565b7f4f6e6c79207265676973746572656420646f63746f722063616e2063616c6c2060008201527f746869732066756e6374696f6e00000000000000000000000000000000000000602082015250565b6000612050602d83611635565b915061205b82611ff4565b604082019050919050565b6000602082019050818103600083015261207f81612043565b9050919050565b7f70617469656e7420646f6573206e6f7420657869737400000000000000000000600082015250565b60006120bc601683611635565b91506120c782612086565b602082019050919050565b600060208201905081810360008301526120eb816120af565b9050919050565b7f4f6e6c7920726567697374657265642070617469656e74732063616e2061646d60008201527f69742c20706c6561736520726567697374657220666972737400000000000000602082015250565b600061214e603983611635565b9150612159826120f2565b604082019050919050565b6000602082019050818103600083015261217d81612141565b9050919050565b7f496e76616c696420626564206e756d6265720000000000000000000000000000600082015250565b60006121ba601283611635565b91506121c582612184565b602082019050919050565b600060208201905081810360008301526121e9816121ad565b9050919050565b7f4265642069732063757272656e746c79206e6f7420617661696c61626c650000600082015250565b6000612226601e83611635565b9150612231826121f0565b602082019050919050565b6000602082019050818103600083015261225581612219565b9050919050565b7f50617469656e7420697320616c72656164792061646d69747465640000000000600082015250565b6000612292601b83611635565b915061229d8261225c565b602082019050919050565b600060208201905081810360008301526122c181612285565b9050919050565b6000815490506122d781611af3565b9050919050565b60008190508160005260206000209050919050565b8181036123015750506123d9565b61230a826122c8565b67ffffffffffffffff81111561232357612322611760565b5b61232d8254611af3565b612338828285611e65565b6000601f8311600181146123675760008415612355578287015490505b61235f8582611ed6565b8655506123d2565b601f198416612375876122de565b965061238086611d46565b60005b828110156123a857848901548255600182019150600185019450602081019050612383565b868310156123c557848901546123c1601f891682611eb8565b8355505b6001600288020188555050505b5050505050505b565b60006060820190506123f0600083018661161b565b6123fd602083018561161b565b61240a60408301846116c4565b949350505050565b7f4e487b7100000000000000000000000000000000000000000000000000000000600052601160045260246000fd5b600061244c826116ba565b91506000820361245f5761245e612412565b5b600182039050919050565b7f696e76616c69642070617469656e740000000000000000000000000000000000600082015250565b60006124a0600f83611635565b91506124ab8261246a565b602082019050919050565b600060208201905081810360008301526124cf81612493565b9050919050565b7f6e6f2062696c6c206973737565642062792074686520646f63746f7200000000600082015250565b600061250c601c83611635565b9150612517826124d6565b602082019050919050565b6000602082019050818103600083015261253b816124ff565b9050919050565b600061254d826116ba565b91507fffffffffffffffffffffffffffffffffffffffffffffffffffffffffffffffff820361257f5761257e612412565b5b600182019050919050565b7f596f7520617265206e6f7420746865206f776e65720000000000000000000000600082015250565b60006125c0601583611635565b91506125cb8261258a565b602082019050919050565b600060208201905081810360008301526125ef816125b3565b9050919050565b7f446f63746f7220697320616c7265616479207265676973746572656400000000600082015250565b600061262c601c83611635565b9150612637826125f6565b602082019050919050565b6000602082019050818103600083015261265b8161261f565b9050919050565b6000606082019050612677600083018661161b565b81810360208301526126898185611681565b9050818103604083015261269d8184611681565b905094935050505056fea26469706673582212204901ee7d6deb2f399113bcafd74a57ca5b0d3d53c5c20fec15469606c84ab69d64736f6c63430008130033",
  "linkReferences": {},
  "deployedLinkReferences": {}
}